:100000000C94D40B0C94010C0C94010C0C94010C6A
:100010000C94010C0C94010C0C94010C0C94010C2C
:100020000C94010C0C94010C0C94010C0C94010C1C
:100030000C94010C0C94A4B60C94010C0C94010CBF
:100040000C94010C0C94CD990C94010C0C94010CA3
:100050000C94010C0C94010C0C9438A40C944EB329
:100060000C94010C0C945C2F0C94010C0C94010C5E
:100070000C94010C0C94010C0C94010C0C94010CCC
:100080000C94010C0C94010C0C94010C0C94010CBC
:100090000C94912F0C94010C0C94010C0C949DB1B8
:1000A0000C94010C0C94010C0C94010C0C94010C9C
:1000B0000C94010C0C94010C0C94010C0C94010C8C
:1000C0000C94010C0C94010C0C94010C0C94010C7C
:1000D0000C94010C0C94010C0C94010C0C94010C6C
:1000E0000C94010C5652FC5259526852FC527F52E9
:1000F000FC528452FC529452FC52FC529F52B15218
:10010000BC52FC52FC52D552D852E152EA52F35240
:10011000FC52FC52F952084AD73B3BCE016E84BCDC
:10012000BFFDC12F3D6C74319ABD56833DDA3D0051
:10013000C77F11BED9E4BB4C3E916BAAAABE00009A
:1001400000803F05A84CCDB2D44EB93836A9020C78
:1001500050B9918688083CA6AAAA2ABE0000008051
:100160003F4D313037004D383420582059205A2027
:100170004500473238205830205930006563686F99
:100180003A0043616E6E6F7420656E746572207301
:1001900075626469723A20004D3234004D3233206A
:1001A0002573006175746F25692E67004572726F43
:1001B000723A006572726F722077726974696E6745
:1001C00020746F2066696C65004E6F742053442064
:1001D0007072696E74696E67002F005344207072EC
:1001E000696E74696E67206279746520002E004420
:1001F000656C6574696F6E206661696C65642C203E
:1002000046696C653A200046696C652064656C65DA
:100210007465643A002E006F70656E206661696CCB
:1002200065642C2046696C653A20005772697469D0
:100230006E6720746F2066696C653A20002E006F2F
:1002400070656E206661696C65642C2046696C651A
:100250003A20002E006F70656E206661696C6564DF
:100260002C2046696C653A200046696C65207365F0
:100270006C6563746564002053697A653A200046B2
:10028000696C65206F70656E65643A20002E006FA2
:1002900070656E206661696C65642C2046696C65CA
:1002A0003A20004E6F772066726573682066696C2D
:1002B000653A20004E6F7720646F696E672066692B
:1002C0006C653A20002220706F73002220706172EA
:1002D000656E743A2200535542524F5554494E456B
:1002E0002043414C4C207461726765743A2200745B
:1002F0007279696E6720746F2063616C6C2073750E
:10030000622D67636F64652066696C657320776929
:10031000746820746F6F206D616E79206C657665EE
:100320006C732E204D4158206C6576656C20697386
:100330003A0053442063617264206F6B006F7065F4
:100340006E526F6F74206661696C656400766F6CC5
:10035000756D652E696E6974206661696C656400EF
:10036000534420696E6974206661696C0065636836
:100370006F3A0048617264636F6465642044656627
:1003800061756C742053657474696E6773204C6F6B
:10039000616465640053746F72656420736574747E
:1003A000696E677320726574726965766564002092
:1003B00044002049002020204D333031205000508F
:1003C00049442073657474696E67733A00205A005B
:1003D00020590020204D323036205800486F6D657E
:1003E000206F666673657420286D6D293A0020457C
:1003F00000205A0020580020420020540020204DA8
:10040000323035205300416476616E636564207636
:1004100061726961626C65733A20533D4D696E206B
:10042000666565647261746520286D6D2F73292C73
:1004300020543D4D696E2074726176656C2066654E
:1004400065647261746520286D6D2F73292C2042BC
:100450003D6D696E696D756D207365676D656E7450
:100460002074696D6520286D73292C20583D6D61BD
:1004700078696D756D205859206A65726B20286DFA
:100480006D2F73292C20205A3D6D6178696D756D33
:10049000205A206A65726B20286D6D2F73292C20DD
:1004A00020453D6D6178696D756D2045206A6572E6
:1004B0006B20286D6D2F73290020540020204D32B1
:1004C0003034205300416363656C65726174696FF9
:1004D0006E3A20533D616363656C65726174696F48
:1004E0006E2C20543D726574726163742061636385
:1004F000656C65726174696F6E00204500205A005A
:1005000020590020204D3230312058004D6178694B
:100510006D756D20416363656C65726174696F6EA2
:1005200020286D6D2F7332293A00204500205A0093
:1005300020590020204D3230332058004D61786919
:100540006D756D2066656564726174657320286DD4
:100550006D2F73293A00204500205A0020590020B1
:10056000204D3932205800537465707320706572C5
:1005700020756E69743A0053657474696E677320F0
:1005800053746F726564006563686F3A00457272F8
:100590006F723A005072696E7465722073746F7076
:1005A0007065642064756520746F206572726F7267
:1005B000732E2046697820746865206572726F72A8
:1005C00020616E6420757365204D39393920746F50
:1005D00020726573746172742E202854656D706585
:1005E0007261747572652069732072657365742E0B
:1005F0002053657420697420616674657220726589
:100600007374617274696E6729005072696E7465E3
:10061000722068616C7465642E206B696C6C28298B
:100620002063616C6C656421006F6B0052657365BB
:100630006E643A20002200556E6B6E6F776E2063F9
:100640006F6D6D616E643A2022007A5F6D696E3A5B
:100650002000795F6D696E3A2000785F6D696E3AAF
:1006600020005A3A00593A0020436F756E742058A2
:100670003A2000453A005A3A00593A00583A0046A2
:1006800049524D574152455F4E414D453A4D617279
:100690006C696E2056313B20537072696E746572BE
:1006A0002F6772626C206D617368757020666F725F
:1006B0002067656E36204649524D574152455F5579
:1006C000524C3A687474703A2F2F7777772E6D6595
:1006D0006E64656C2D70617274732E636F6D205043
:1006E000524F544F434F4C5F56455253494F4E3A29
:1006F000312E30204D414348494E455F54595045B5
:100700003A4D656E64656C204558545255444552C7
:100710005F434F554E543A310A0020423A0020457B
:100720003A00543A0020573A0020453A00543A0023
:100730002042403A0020403A00202F003A00205446
:1007400000202F0020423A00202F006F6B20543AE7
:10075000002569206D696E2C202569207365630072
:100760006F6B00456E642066696C65206C697374FC
:1007700000426567696E2066696C65206C697374F8
:1007800000FFFFFF00007A4300007A430000C843E7
:100790000000A0400000A0400000803F00000000DA
:1007A0000000000000000000000000000000000049
:1007B0000000000000007A4300007A430000C843B4
:1007C000256920686F757273202569206D696E75C3
:1007D00074657300446F6E65207072696E74696E23
:1007E000672066696C65005072696E74657220736B
:1007F000746F707065642064756520746F20657215
:10080000726F72732E204669782074686520657255
:10081000726F7220616E6420757365204D393939AD
:1008200020746F20726573746172742E2028546571
:100830006D7065726174757265206973207265737D
:1008400065742E2053657420697420616674657226
:100850002072657374617274696E6729006F6B0032
:100860004E6F204C696E65204E756D626572207703
:1008700069746820636865636B73756D2C204C61C7
:100880007374204C696E653A20004E6F2043686592
:10089000636B73756D2077697468206C696E652071
:1008A0006E756D6265722C204C617374204C696E9C
:1008B000653A2000636865636B73756D206D6973BD
:1008C0006D617463682C204C617374204C696E6593
:1008D0003A20004C696E65204E756D626572206924
:1008E00073206E6F74204C617374204C696E6520A8
:1008F0004E756D6265722B312C204C617374204CE7
:10090000696E653A20004D31313000446F6E6520CC
:10091000736176696E672066696C652E006F6B0087
:100920006F6B004D3239002020506C616E6E657225
:1009300042756666657242797465733A2000204696
:10094000726565204D656D6F72793A20004175675B
:10095000203237203230313500436F6D70696C655D
:10096000643A2000286E6F6E652C206465666175A0
:100970006C7420636F6E6669672900207C20417566
:1009800074686F723A200041756720323720323028
:1009900031352030393A33343A313300204C6173E9
:1009A0007420557064617465643A2000312E302ED5
:1009B00030004D61726C696E200020536F66747751
:1009C00061726520526573657400205761746368B5
:1009D000646F67205265736574002042726F776E92
:1009E000206F7574205265736574002045787465B6
:1009F000726E616C20526573657400506F7765721A
:100A00005570007374617274004731204634383079
:100A10003000473238004D363030004731205830F2
:100A2000205930204639363030004731205A323094
:100A3000204638303000473238205A3000473120C5
:100A40005832353020593235302046393630300072
:100A50004731205A32302046383030004732382073
:100A60005A3000473120583235302059302046392D
:100A7000363030004731205A32302046383030008E
:100A8000473238205A30004731205830205932350B
:100A900030204639363030004731205A3230204637
:100AA00038303000473238004D3834205820592033
:100AB0004500473930004731205A2D313000473941
:100AC0003100473930004731205A31300047393141
:100AD000004D313037004D383420582059205A20ED
:100AE0004500473238205830205930004D383420E6
:100AF0005820592045004D3234004D3233202573A3
:100B0000002200656E717565696E67202200220003
:100B1000656E717565696E672022006563686F3A5E
:100B20000020746F6F206C6F6E672065787472752B
:100B300073696F6E2070726576656E7465640020EF
:100B4000636F6C6420657874727573696F6E207062
:100B5000726576656E746564007C3C3E5E2B3D3F3D
:100B60002F5B5D3B2C2A225C0045313A200045304A
:100B70003A20005A3A2000593A2000583A20004DB5
:100B800053312C4D53322050696E730A0024F40403
:100B9000D9201BC40C5C0E9804C4095F0265077160
:100BA00001F405F900FB04B30048048700C10369A0
:100BB000005803550003034500BE023A0084023189
:100BC0000053022A002902250004022000E4011C2F
:100BD00000C8011900AF0117009801140084011327
:100BE00000710110006101100051010E0043010D60
:100BF0000036010B002B010B0020010B0015010931
:100C0000000C01090003010800FB000800F30008C4
:100C100000EB000700E4000600DE000600D8000636
:100C200000D2000600CC000500C7000500C2000588
:100C300000BD000400B9000400B5000400B10004C8
:100C400000AD000400A9000400A5000300A20003F9
:100C5000009F0004009B0003009800030095000221
:100C60000093000300900003008D0002008B00033E
:100C70000088000200860002008400030081000258
:100C8000007F0002007D0002007B0002007900026C
:100C9000007700010076000200740002007200017B
:100CA00000710002006F0002006D0001006C000284
:100CB000006A00010069000200670001006600018F
:100CC0000065000100640002006200010061000193
:100CD00000600001005F0002005D0001005C000197
:100CE000005B0001005A000100590001005800019A
:100CF000005700010056000100550001005400019A
:100D00000053000000530001005200010051000197
:100D100000500001004F0001004E0000004E000195
:100D2000004D0001004C0001004B0000004B000191
:100D3000004A00010049000100480000004800018D
:100D40000047000100460000004600010045000089
:100D50000045000100440001004300000043000181
:100D6000004200000042000100410000004100017B
:100D700000400001003F0000003F0001003E000075
:100D8000003E0001003D0000003D0001003C00006D
:100D9000003C0000003C0001003B0000003B000163
:100DA000003A0000003A000100390000003900015B
:100DB0000038000000380000003800010037000053
:100DC0000037000100360000003600000036000148
:100DD000003500000035000000350001003400003F
:100DE0000034000000340001003300000033000034
:100DF0000033000100320000003200000032000128
:100E0000003100000031000000310001003000001E
:100E10000030000000300001002F0000002F000013
:100E2000002F0000002F0001002E0000002E000007
:100E3000002E0001002D0000002D0000002D0000FC
:100E4000002D0001002C0000002C0000002C0000F0
:100E5000002C0001002B0000002B0000002B0000E4
:100E6000002B0001002A0000002A0000002A0000D8
:100E7000002A0001002900000029000000290000CC
:100E800000290000002900010028000000280000BF
:100E900000280000002800000028000100270000B2
:100EA00000270000002700000027000000270001A5
:100EB000002600000026000000260000002600009A
:100EC000002600010025000000250000002500008C
:100ED000002500000025000000250001002400007E
:100EE0000024000000240000002400000024000171
:100EF0000023000000230000002300000023000066
:100F00000023000000230000002300010022000055
:100F10000022000000220000002200000022000049
:100F2000002200010021000000210000002100003B
:100F3000002100000021000000210000002100012C
:100F40000020000000200000002000000020000021
:100F50000020000000200000002000000020000110
:100F6000001F0000001F0000001F0000001F000005
:100F7000001F0000001F0000001F0001001E0000F5
:100F8000001E0000001E0000001E00000024F4D41B
:100F90003050C38E20C2A24017828B7011127A91FA
:100FA0000D816CD90AA861E108C7586607615143F1
:100FB000061E4B5D05C145A7041A411104093D9861
:100FC00003713931034036DB0265339102D430546A
:100FD00002802E1D02632CEE01752AC501B028A0E7
:100FE00001102781018F2564012B244B01E022345D
:100FF00001AC211F018D200D01801FFC00841EED1E
:1010000000971DDF00B81CD200E61BC600201BBCE9
:1010100000641AB200B219A8000A19A0006A18994F
:1010200000D117910040178B00B516840031167E51
:1010300000B31579003A157300C7146F0058146A8D
:1010400000EE1366008813630025135E00C7125B71
:10105000006C12570015125400C111510070114F4D
:101060000021114B00D61049008D10470046104456
:101070000002104200C00F4000800F3E00420F3CB3
:1010800000060F3B00CB0E3800930E37005C0E3588
:1010900000270E3400F30D3200C10D3100900D30E9
:1010A00000600D2E00320D2D00050D2C00D90C2BEB
:1010B00000AE0C2900850C29005C0C2700350C279C
:1010C000000E0C2600E80B2400C40B2400A00B2308
:1010D000007D0B23005A0B2100390B2100180B2037
:1010E00000F80A1F00D90A1E00BB0A1E009D0A1D37
:1010F00000800A1D00630A1C00470A1B002C0A1B03
:1011000000110A1A00F7091A00DD091900C40919AB
:1011100000AB091900920917007B09180063091731
:10112000004C09160036091600200916000A091598
:1011300000F5081500E0081400CC081400B80814E5
:1011400000A4081400900813007D0812006B081317
:101150000058081200460812003408110023081134
:10116000001208110001081100F0071000E007103C
:1011700000D0071000C0071000B0070F00A1071033
:101180000091070E0083070F0074070F0065070E1C
:101190000057070E0049070E003B070D002E070EF3
:1011A0000020070D0013070D0006070D00F9060CBF
:1011B00000ED060D00E0060C00D4060C00C8060C7D
:1011C00000BC060C00B0060C00A4060B0099060C2F
:1011D000008D060B0082060B0077060B006C060BD9
:1011E0000061060A0057060B004C060A0042060A78
:1011F0000038060A002E060A0024060A001A060A0B
:10120000001006090007060A00FD050900F405099B
:1012100000EB050900E2050900D9050900D0050920
:1012200000C7050900BE050900B5050800AD0508A1
:1012300000A50509009C050800940508008C050818
:1012400000840508007C050800740508006C05078B
:1012500000650508005D050700560508004E0507F6
:10126000004705070040050800380507003105075D
:10127000002A050700230507001C050600160507C0
:10128000000F0507000805060002050700FB04061D
:1012900000F5040700EE040600E8040600E2040777
:1012A00000DB040600D5040600CF040600C90406CE
:1012B00000C3040600BD040600B7040600B104051F
:1012C00000AC040600A6040600A00405009B04066A
:1012D0000095040500900406008A040500850405B5
:1012E00000800406007A04050075040500700405FA
:1012F000006B04050066040500610405005C04053C
:101300000057040500520405004D0405004804057B
:1013100000430405003E0404003A040500350405BA
:1013200000300404002C04050027040400230405F5
:10133000001E0404001A040400160405001104042D
:10134000000D040400090405000404040000040462
:1013500000FC030400F8030400F4030400F0030499
:1013600000EC030400E8030400E4030400E00304C9
:1013700000DC030400D8030400D4030400D00304F9
:1013800000CC030400C8030300C5030300656368C1
:101390006F3A00205A3A0020593A0020583A006526
:1013A0006E6473746F7073206869743A20004572BC
:1013B000726F723A0054656D706572617475726512
:1013C0002068656174656420626564207377697460
:1013D00063686564206F66662E204D415854454D04
:1013E0005020747269676765726564202121003A34
:1013F00020457874727564657220737769746368C8
:101400006564206F66662E204D494E54454D502030
:101410007472696767657265642021003A204578B7
:10142000747275646572207377697463686564208B
:101430006F66662E204D415854454D502074726998
:10144000676765726564202100202D20496E7661F2
:101450006C6964206578747275646572206E756D50
:1014600062657220210070012C0190012701B001FA
:101470002201C0011D01F001180110021301300208
:101480000E016002090190020401C002FF00000386
:10149000FA004003F5008003F000D003EB002004C5
:1014A000E6007004E100E004DC004005D700C00560
:1014B000D2004006CD00D006C8008007C300300827
:1014C000BE00F008B900C009B400B00AAF00B00B0C
:1014D000AA00D00CA500000EA000500F9B00C01069
:1014E00096005012910000148C00C0158700B017B0
:1014F0008200B0197D00D01B7800001E73004020D0
:101500006E0090226900F024640040275F0090295B
:101510005A00E02B5500102E500020304B001032A6
:101520004600E033410090353C00103737007038FA
:101530003200A0392D00B03A2800A03B2300603CC7
:101540001E00103D1900903D1400103E0F00703E2B
:101550000A00C03E0500003F00005049442041758C
:10156000746F74756E652066696E69736865642151
:101570002050757420746865204B702C204B6920B6
:10158000616E64204B6420636F6E7374616E74735C
:1015900020696E746F20436F6E666967757261743F
:1015A000696F6E2E6800504944204175746F7475E0
:1015B0006E65206661696C6564212074696D656F74
:1015C00075740020403A006F6B20543A006F6B2016
:1015D000423A00504944204175746F74756E65201D
:1015E0006661696C6564212054656D706572617413
:1015F00075726520746F6F206869676800204B649E
:101600003A2000204B693A2000204B703A200020FD
:10161000436C617369632050494420002054753A3B
:101620002000204B753A2000206D61783A20002080
:101630006D696E3A200020643A200020626961736F
:101640003A200000002100240027002A002D00304D
:1016500000330001010000040107010A010000221B
:1016600000250028002B002E00310034000201006C
:1016700000050108010B01000020002300260029BD
:10168000002C002F003200000100000301060109B8
:101690000105050505070508080808020202020AF7
:1016A0000A08080404040401010101010101010305
:1016B00003030303030303040707070C0C0C0C0CC0
:1016C0000C0C0C0202020206060606060606060BB3
:1016D0000B0B0B0B0B0B0B0102102020080810202A
:1016E00040102040800201020108040201010204AE
:1016F000081020408080402010080402018004026D
:1017000001804020100804020108040201010204C3
:1017100008102040800102040810204080000009C9
:101720000A02080B0C0D070603040100000000006C
:1017300000000000000000000000000000000000A9
:1017400000000000000000000011100F0000000069
:101750000000000000000000000000000000000089
:1017600000000002494E46494E4954594E414ECD63
:10177000CCCC3D0AD7233C17B7D13877CC2B329548
:1017800095E6241FB14F0A000020410000C8420026
:10179000401C4620BCBE4CCA1B0E5AAEC59D7400F0
:1017A0007E30F33743B0EE3711241FBECFEFD1E2C6
:1017B000DEBFCDBF00E00CBF16E0A0E0B2E0EAEE75
:1017C000FEE701E00BBF02C007900D92A837B107FA
:1017D000D9F71BBE1BE1A8E7B6E001C01D92A239F4
:1017E000B107E1F717E1C6EAD7E104C02297FE018D
:1017F0000E941BBFC03AD107C9F70E9423B60C94C0
:1018000069BF0C940000A0E0B0E0E9E0FCE00C94BB
:1018100038BFEC015B016115710519F0FB01918383
:101820008083F9908F2D90E00E941FBF892BC9F70C
:10183000FDE2FF1621F4F990EE24E39405C02BE2BB
:10184000F21609F4F990EE248E0101501040C801FF
:1018500064E677E143E050E069D2892BF9F48E0128
:101860000E5F1F4FC80167E677E145E050E05ED2AA
:10187000892B19F48E01095F1F4FA114B10419F0CF
:10188000F50111830083E0FC04C070E090E080E883
:1018900013C070E090E080E86FEF07C1C8016CE60C
:1018A00077E143E050E042D2892B69F4A114B104FE
:1018B00029F470E090E080EC6FE7F7C02296F50124
:1018C000D183C083F6CF8824992440E050E060E0C3
:1018D00070E0EF2DE053EA30A0F5F2E0EF2A8E2D14
:1018E00090E09C0128703070E2FE06C0232B79F551
:1018F0000894811C911C2BC0232B19F0089481089B
:101900009108DB01CA0112E0880F991FAA1FBB1FB3
:101910001A95D1F7480F591F6A1F7B1F440F551F97
:10192000661F771F4E0F511D611D711D483929E932
:10193000520729E9620729E1720748F084E0E82AA2
:1019400006C0EE3F31F4E3FC39C098E0E92AF99093
:10195000C0CFE53311F0E53189F529912D3219F425
:10196000E0E1EE2A05C02B3219F081E090E003C0DF
:10197000299182E090E0E22FE053EA3018F0C81B92
:10198000D90B1CC020E030E0FCE020383F075CF4BD
:10199000C901880F991F880F991F280F391F220F1F
:1019A000331F2E0F311DE991E053EA3068F3E4FE56
:1019B00003C0309521953F4F820E931ECE2CDD241F
:1019C000E1FE07C0A114B10421F02197F501D183F4
:1019D000C083CB01BA010E946BBB7B018C01F3E099
:1019E000CF22DD2423E0C216D10421F417FB109589
:1019F00017F9109557016801C801B70120E030E0E0
:101A000040E050E00E94CBBA882309F44AC097FE18
:101A10000DC023E8E22E27E1F22E909481949108E4
:101A20009394C0E2D0E000E010E012C09BE9E92E00
:101A300097E1F92EF6CFF701259135914591549113
:101A4000C601B5010E94ABBD5B016C018C1A9D0AF9
:101A50008C169D0684F7D595C7950F5F1F4F0630EE
:101A6000110529F08CEF9FEFE80EF91EF1CFC501AB
:101A7000D6017C018D018C2D880F8D2D881F8F3F05
:101A800051F0C601B50120E030E040E050E00E9496
:101A9000CBBA882331F482E290E09093911B80933B
:101AA000901B7E2D9F2D802F612F272F392F482FA0
:101AB000562FB901CA01CDB7DEB7ECE00C9454BF84
:101AC0002F923F925F926F927F928F929F92AF92EE
:101AD000BF92CF92DF92EF92FF920F931F93CF931B
:101AE000DF938C011B01EA016115710519F0FB01FF
:101AF00091838083209749F0CE010297839728F045
:101B000020E030E040E050E0F6C0F801A1908F0105
:101B10008A2D90E00E941FBF892BB9F7FDE2AF1616
:101B200031F4F801A1908F015524539407C0FBE2D2
:101B3000AF1619F4F801A1908F015524209719F0E0
:101B4000C031D105C1F4F0E3AF1679F4F80180811A
:101B5000883711F0883549F4F801A1800E5F1F4FD6
:101B6000F2E05F2AC0E1D0E006C0209721F480E3D4
:101B7000A816E9F427C0C830D10531F1C930D10524
:101B800024F4C230D10531F50CC0CA30D10589F03A
:101B9000C031D105F9F4C12CD12CE12CB8E0FB2ED9
:101BA00028C0C12CD12CE12CA0E4FA2E22C0CAE01E
:101BB000D0E0FCECCF2EFCECDF2EFCECEF2EFCE0BA
:101BC000FF2E17C0C8E0D0E0C12CD12CE12CE0E101
:101BD000FE2E0FC09E01442737FD4095542F60E034
:101BE00070E080E090E80E94DCBEC901DA016C017F
:101BF0007D0120E030E040E050E060E03E018824DC
:101C000077FC8094982C70EDB72EBA0CE9E0EB15B8
:101C100070F48A2D81548A3118F499ECB92E06C0DB
:101C20008A2D81568A3150F589EAB82EBA0C8B2D4F
:101C300090E08C179D0714F56F3FE1F0C216D306B4
:101C4000E406F506B0F0CA01B901A40193010E94AF
:101C50007DBE9B01AC012B0D311D411D511D21305D
:101C6000F0E03F07F0E04F07F0E85F0710F461E0B5
:101C700001C06FEFF801A1908F01C5CF211431048D
:101C800081F0662331F001501040F101118300838F
:101C900008C051FE1AC002501040F10111830083A8
:101CA00014C067FF12C050FC05C02FEF3FEF4FEF8D
:101CB0005FE704C020E030E040E050E882E290E0DE
:101CC0009093911B8093901B16C050FE08C05095B6
:101CD0004095309521953F4F4F4F5F4F0CC057FFB8
:101CE0000AC082E290E09093911B8093901B2FEFAB
:101CF0003FEF4FEF5FE7B901CA01DF91CF911F912D
:101D00000F91FF90EF90DF90CF90BF90AF909F909A
:101D10008F907F906F905F903F902F900895FB0180
:101D2000DC0105900D920020E1F70895FB01DC0134
:101D30004150504088F08D9181341CF08B350CF46B
:101D4000805E659161341CF06B350CF4605E861B1F
:101D5000611171F3990B0895881BFCCFFB0155911C
:101D60005523A9F0BF01DC014D9145174111E1F761
:101D700059F4CD010590002049F04D9140154111D5
:101D8000C9F3FB014111EFCF81E090E00197089585
:101D9000FB01DC0104C08D910190801921F44150B8
:101DA0005040C8F7881B990B0895FB01DC0102C065
:101DB00001900D9241505040D8F70895FB01DC018D
:101DC0000D900020E9F7119701900D920020E1F7A6
:101DD0000895FC018191861721F08823D9F799276E
:101DE00008953197CF010895FB01DC0101900D9218
:101DF0000020E1F70895FB01DC014150504030F034
:101E00008D910190801919F40020B9F7881B990B66
:101E10000895FB01DC014150504048F001900D92C3
:101E20000020C9F701C01D9241505040E0F70895CD
:101E3000AEE0B0E0EEE1FFE00C9440BF0E891F89F8
:101E40008EE08C831A8309838FEF9FE79E838D83B7
:101E50009E01265E3F4FCE010196688D798DA901C6
:101E60000AD02F813885020F131FF80110822E9699
:101E7000E4E00C945CBFABE0B0E0E1E4FFE00C9484
:101E800032BF3C012B015A01FC011782168283816B
:101E900081FD03C06FEF7FEFB9C19AE0892E1E016B
:101EA0000894211C311CF3012381F20123FD85914B
:101EB00023FF81912F01882309F4A5C1853239F4CC
:101EC00023FD859123FF81912F01853221F490E03C
:101ED000B301B7D1E8CF982FFF24EE249924FFE176
:101EE000FF15D0F09B3269F09C3228F4903259F003
:101EF000933291F40EC09D3249F0903369F441E081
:101F000024C052E0F52A84E0F82A28C098E0F92A93
:101F100025C0E0E1FE2A22C0F7FC29C0892F8053AA
:101F20008A3070F4F6FE05C0989C902C1124980E0F
:101F300015C0E89CE02C1124E80EF0E2FF2A0EC048
:101F40009E3229F4F6FC5FC140E4F42A07C09C36B7
:101F500019F450E8F52A02C0983649F4F20123FD3D
:101F6000959123FF91912F01992309F0B8CF892FE3
:101F70008554833018F08052833038F444E050E0C8
:101F8000A40EB51E5FE359830FC0933631F093372B
:101F900079F0933509F052C01FC0F5018081898323
:101FA00042E050E0A40EB51E610101E010E011C056
:101FB000F501C080D180F6FC03C06FEF7FEF02C057
:101FC000692D70E042E050E0A40EB51EC6012ED18E
:101FD0008C015FE7F52213C0F501C080D180F6FCCB
:101FE00003C06FEF7FEF02C0692D70E042E050E068
:101FF000A40EB51EC6010FD18C0150E8F52AF3FEE0
:1020000006C018C080E290E0B3011BD1EA948E2D87
:1020100090E008171907B0F30DC0F601F7FC8591A1
:10202000F7FE81916F0190E0B3010BD1E110EA94CA
:10203000015010400115110581F7E2C0943611F0EE
:10204000993661F5F7FE08C0F501208131814281A2
:10205000538184E090E00AC0F501808191819C0168
:10206000442737FD4095542F82E090E0A80EB91E1A
:102070009FE6F92257FF09C050954095309521956C
:102080003F4F4F4F5F4FE0E8FE2ACA01B901A1015F
:102090002AE030E002D1D82ED2183FC0953729F47B
:1020A0001F2D1F7E2AE030E01DC01F2D197F9F3697
:1020B00061F0903720F4983509F0A5C00FC0903733
:1020C00039F0983709F09FC004C028E030E00AC01A
:1020D000106114FD146020E130E004C014FD1660AE
:1020E00020E132E017FF08C0F50160817181828133
:1020F000938144E050E008C0F50180819181BC01EA
:1021000080E090E042E050E0A40EB51EA101C5D0F1
:10211000D82ED2188FE7F82EF122F6FE0BC05EEF14
:10212000F522D91438F4F4FE07C0F2FC05C08FEE96
:10213000F82202C01D2D01C0192DF4FE0DC0FE01B4
:10214000ED0DF11D8081803319F499EEF92208C05C
:102150001F5FF2FE05C003C08F2D867809F01F5F58
:102160000F2DF3FC13C0F0FE0EC01E1510F09D2CB9
:102170000AC09D2C9E0C911A1E2D05C080E290E095
:10218000B3015FD01F5F1E15C8F304C01E1510F405
:10219000E11A01C0EE2404FF0EC080E390E0B30119
:1021A00050D002FF1BC001FD03C088E790E00EC0C5
:1021B00088E590E00BC0802F867881F001FF02C097
:1021C0008BE201C080E2F7FC8DE290E0B30139D0F0
:1021D00005C080E390E0B30134D09A94D914C8F3D9
:1021E000DA94F101ED0DF11D808190E0B30129D069
:1021F000DD20B1F705C080E290E0B30122D0EA947F
:10220000EE20C9F750CEF30166817781CB012B9682
:10221000E2E10C944EBFFC0105906150704001104A
:10222000D8F7809590958E0F9F1F0895FC016150FF
:10223000704001900110D8F7809590958E0F9F1FE8
:1022400008950F931F93CF93DF938C01EB018B8144
:1022500081FF1BC082FF0DC02E813F818C819D813B
:102260002817390764F4E881F9810193F983E88339
:1022700006C0E885F985802F1995892B31F48E8168
:102280009F8101969F838E8302C00FEF1FEFC801CD
:10229000DF91CF911F910F910895FA01AA2728305D
:1022A00051F1203181F1E8946F936E7F6E5F7F4F23
:1022B0008F4F9F4FAF4FB1E03ED0B4E03CD0670F9F
:1022C000781F891F9A1FA11D680F791F8A1F911DF2
:1022D000A11D6A0F711D811D911DA11D20D009F442
:1022E00068943F912AE0269F11243019305D319384
:1022F000DEF6CF010895462F4770405D4193B3E06D
:102300000FD0C9F7F6CF462F4F70405D4A3318F013
:10231000495D31FD4052419302D0A9F7EACFB4E0C4
:10232000A6959795879577956795BA95C9F700977C
:102330006105710508959B01AC010A2E069457951D
:10234000479537952795BA95C9F7620F731F841F74
:10235000951FA01D0895FC01128213820895FC01AF
:102360008381882311F081E082830895FC018281BA
:10237000811112820895FC0180E696E091838083AA
:102380008781882321F0CF0104960C94008C089556
:10239000EF92FF920F931F938C0132EDE32E31E009
:1023A000F32EE80EF91EC7010E94B38BC7010E94ED
:1023B000008CF801108211821F910F91FF90EF9015
:1023C0000895CF92DF92EF92FF920F931F93CF93D6
:1023D000DF937C016B01DB010D900020E9F78D019B
:1023E00001501040061B170BE2EDF1E0EE0EFF1E50
:1023F000D7011C92EEE2FEEFEE0EFF1ECB016EE463
:1024000070E0E7DCEC01009731F4F8013197EC0D56
:10241000FD1D86010CC060E270E0DBDC8C010F5F0B
:102420001F4FCE016AE270E0D4DCFC0131978DE0F1
:1024300081838AE082831382C70182539E4FB80151
:102440000E94E59382ED91E0E80EF91ED7018C9190
:10245000882309F456C0ECEAF1E044919F0119C0C9
:10246000E0919008F091910850919B08808190E054
:10247000052E02C0959587950A94E2F780FFF6CF66
:10248000E0919608F091970840832F5F3F4FF90144
:102490004491442329F7E3EBF1E044919F0119C0F3
:1024A000E0919008F091910850919B08808190E014
:1024B000052E02C0959587950A94E2F780FFF6CF26
:1024C000E0919608F091970840832F5F3F4FF90104
:1024D0004491442329F7E0919008F09191082091CC
:1024E0009B08808190E0022E02C0959587950A9402
:1024F000E2F780FFF6CFE0919608F09197088AE026
:102500008083DF91CF911F910F91FF90EF90DF902B
:10251000CF900895CF93DF93EC018B81882309F44A
:1025200067C0EBEDF1E044919F0119C0E091900884
:10253000F091910850919B08808190E0052E02C097
:10254000959587950A94E2F780FFF6CFE09196087B
:10255000F091970840832F5F3F4FF9014491442346
:1025600029F74FA558A969A97AA988E898E02AE02F
:1025700030E00E949031E9EDF1E044919F0119C0F3
:10258000E0919008F091910850919B08808190E033
:10259000052E02C0959587950A94E2F780FFF6CF45
:1025A000E0919608F091970840832F5F3F4FF90123
:1025B0004491442329F7C158DD4F488159816A81EC
:1025C0007B8188E898E02AE030E00E949031E09139
:1025D0009008F091910820919B08808190E0022E54
:1025E00002C0959587950A94E2F780FFF6CF30C038
:1025F000E9ECF1E044919F0119C0E0919008F0915D
:10260000910850919B08808190E0052E02C095951D
:1026100087950A94E2F780FFF6CFE0919608F09153
:10262000970840832F5F3F4FF9014491442329F7D6
:10263000E0919008F091910820919B08808190E0B2
:10264000022E02C0959587950A94E2F780FFF6CF97
:10265000E0919608F09197088AE08083DF91CF910E
:1026600008952F923F924F925F926F927F928F9236
:102670009F92AF92BF92CF92DF92EF92FF920F9311
:102680001F93DF93CF93CDB7DEB7AC970FB6F89417
:10269000DEBF0FBECDBF5C014B01FC0183818823EF
:1026A00009F4F2C1C5018E529E4F0E94008CF501C3
:1026B00012821A8A1D8A198A188A80E696E09F87F4
:1026C0008E8752E5C52ED12CCA0CDB1C23E330E0EB
:1026D000A20EB31EF601B182A0822DEC3FEFA20E36
:1026E000B31EF40180818F3209F0EBC0C4016FE2A8
:1026F00070E06FDB7C010894E11CF11C3E01089442
:10270000611C711C260142E1242E312C2C0E3D1E31
:10271000D3C0C7016FE270E05CDB6C01009709F485
:10272000DEC0E816F90608F0DAC08C010E191F09A0
:10273000C301B701A8016DDB060D171DF80110825A
:10274000D30116C0E0919008F091910820919B0868
:10275000808190E0022E02C0959587950A94E2F759
:1027600080FFF6CF1196E0919608F091970830839C
:102770003C91332339F7E0919008F0919108209132
:102780009B08808190E0022E02C0959587950A945F
:10279000E2F780FFF6CFE0919608F09197082AE0E3
:1027A0002083F201608171816115710519F460E087
:1027B00070E002C06C5F7F4FC101A30121E00E9465
:1027C000EC92882309F06DC0E7E1F2E044919F01AB
:1027D00019C0E0919008F091910850919B08808178
:1027E00090E0052E02C0959587950A94E2F780FF48
:1027F000F6CFE0919608F091970840832F5F3F4F06
:10280000F9014491442329F7DE01119616C0E091A5
:102810009008F091910820919B08808190E0022E11
:1028200002C0959587950A94E2F780FFF6CF11963E
:10283000E0919608F091970830833C91332339F763
:10284000E5E1F2E044919F0119C0E0919008F09118
:10285000910850919B08808190E0052E02C09595CB
:1028600087950A94E2F780FFF6CFE0919608F09101
:10287000970840832F5F3F4FF9014491442329F784
:10288000E0919008F091910820919B08808190E060
:10289000022E02C0959587950A94E2F780FFF6CF45
:1028A000EAC02EE030E02C0F3D1FF201318320837F
:1028B00076010894E11CF11CE114F10409F029CF20
:1028C0000BC084E590E0A80EB91EF601B182A0828B
:1028D0002CEA3FEFA20EB31ED82C092D02C0DE2C2D
:1028E0000F2D82E590E0A80EB91EF501808191813F
:1028F0002EEA3FEFA20EB31E009719F480E090E09D
:1029000001C004966D2D702F0E94B893882309F49E
:1029100044C0E7E0F2E044919F0119C0E0919008C3
:10292000F091910850919B08808190E0052E02C0A3
:10293000959587950A94E2F780FFF6CFE091960887
:10294000F091970840832F5F3F4FF9014491442352
:1029500029F78D2D902F9C01D90116C0E091900888
:10296000F091910820919B08808190E0022E02C096
:10297000959587950A94E2F780FFF6CF1196E0913E
:102980009608F091970830833C91332339F7F5018D
:1029900017A610AA11AA12AA74C0EFEEF1E0449192
:1029A0009F0119C0E0919008F091910850919B0807
:1029B000808190E0052E02C0959587950A94E2F7F4
:1029C00080FFF6CFE0919608F091970840832F5F43
:1029D0003F4FF9014491442329F78D2D902F9C01FD
:1029E000D90116C0E0919008F091910820919B08C0
:1029F000808190E0022E02C0959587950A94E2F7B7
:102A000080FFF6CF1196E0919608F09197083083F9
:102A10003C91332339F7EDEEF1E044919F0119C069
:102A2000E0919008F091910850919B08808190E08E
:102A3000052E02C0959587950A94E2F780FFF6CFA0
:102A4000E0919608F091970840832F5F3F4FF9017E
:102A50004491442329F7E0919008F0919108209146
:102A60009B08808190E0022E02C0959587950A947C
:102A7000E2F780FFF6CFE0919608F09197088AE0A0
:102A80008083CE010E9677DCAC960FB6F894DEBF4D
:102A90000FBECDBFCF91DF911F910F91FF90EF90AF
:102AA000DF90CF90BF90AF909F908F907F906F906E
:102AB0005F904F903F902F900895BF92CF92DF92FA
:102AC000EF92FF920F931F93CF93DF938C01EB0153
:102AD0008FE28993EE24E394FF2479EAC72E71E014
:102AE000D72EC00ED11E6FE1B62E14C0FB9CC001C4
:102AF000112489589F4F800F911FBE010E94108C96
:102B000002C02196E3948881882319F08CE88E1501
:102B1000C0F7F3942F2D30E0F601808191812817C2
:102B2000390720F3E7FC07C0C8018E529E4FBE0153
:102B30000E94108C01C01882DF91CF911F910F91DC
:102B4000FF90EF90DF90CF90BF9008952F923F922B
:102B50004F925F926F927F928F929F92AF92BF92AD
:102B6000CF92DF92EF92FF920F931F93DF93CF9359
:102B7000CDB7DEB7AD970FB6F894DEBF0FBECDBFB1
:102B80006C014B014DA7DC0113968C91882309F44D
:102B9000D7C5E5EDF1E0CE0EDF1ED6018C91EBE25C
:102BA000FEEFCE0EDF1E882309F4F7C1222309F0C1
:102BB0007DC12DEE31E0C20ED31ED6018C91E3E132
:102BC000FEEFCE0EDF1E882309F461C0ECEAF1E0CF
:102BD00044919F0119C0E0919008F09191085091A3
:102BE0009B08808190E0052E02C0959587950A94F8
:102BF000E2F780FFF6CFE0919608F09197084083C6
:102C00002F5F3F4FF9014491442329F7EFEEF2E0A3
:102C100044919F0119C0E0919008F0919108509162
:102C20009B08808190E0052E02C0959587950A94B7
:102C3000E2F780FFF6CFE0919608F0919708408385
:102C40002F5F3F4FF9014491442329F788E898E02A
:102C500061E070E04AE050E00E94F531E0919008B8
:102C6000F091910820919B08808190E0022E02C093
:102C7000959587950A94E2F780FFF6CFE091960844
:102C8000F09197088AE080830E94693859C5ECE783
:102C9000F1E044919F0119C0E0919008F0919108F2
:102CA00050919B08808190E0052E02C095958795F4
:102CB0000A94E2F780FFF6CFE0919608F09197082A
:102CC00040832F5F3F4FF9014491442329F7E6EDFC
:102CD000F2E044919F0119C0E0919008F0919108B1
:102CE00050919B08808190E0052E02C095958795B4
:102CF0000A94E2F780FFF6CFE0919608F0919708EA
:102D000040832F5F3F4FF9014491442329F7D401B9
:102D100016C0E0919008F091910820919B08808165
:102D200090E0022E02C0959587950A94E2F780FF05
:102D3000F6CF1196E0919608F091970830833C9178
:102D4000332339F7EBECF2E044919F0119C0E09195
:102D50009008F091910850919B08808190E0052E99
:102D600002C0959587950A94E2F780FFF6CFE0912F
:102D70009608F091970840832F5F3F4FF9014491E7
:102D8000442329F7860103511E4FD8016C91BDE8F9
:102D9000FB2E6F9DB00111246E507E4F6C0D7D1D7A
:102DA000C6018BDEF80180818F9DD0011124AE50C9
:102DB000BE4FAC0DBD1D16C0E0919008F09191087A
:102DC00020919B08808190E0022E02C09595879506
:102DD0000A94E2F780FFF6CF1196E0919608F09101
:102DE000970830833C91332339F7E5ECF2E04491C6
:102DF0009F0119C0E0919008F091910850919B08B3
:102E0000808190E0052E02C0959587950A94E2F79F
:102E100080FFF6CFE0919608F091970840832F5FEE
:102E20003F4FF9014491442329F7D6019F964D91D4
:102E30005D916D917C91D29788E898E02AE030E02E
:102E40000E949031E0919008F091910820919B08A8
:102E5000808190E0022E02C0959587950A94E2F752
:102E600080FFF6CFE0919608F09197088AE0808382
:102E7000A60143515E4FFA012081E22FF0E0EE0FF0
:102E8000FF1FEE0FFF1FEC0DFD1DE251FE4FD6019F
:102E90009F964D905D906D907C90D297408251822C
:102EA000628273822F5FFA01208371C0ECE7F1E048
:102EB00044919F0119C0E0919008F09191085091C0
:102EC0009B08808190E0052E02C0959587950A9415
:102ED000E2F780FFF6CFE0919608F09197084083E3
:102EE0002F5F3F4FF9014491442329F7E4EBF2E0CF
:102EF00044919F0119C0E0919008F0919108509180
:102F00009B08808190E0052E02C0959587950A94D4
:102F1000E2F780FFF6CFE0919608F09197084083A2
:102F20002F5F3F4FF9014491442329F7D40116C084
:102F3000E0919008F091910820919B08808190E0A9
:102F4000022E02C0959587950A94E2F780FFF6CF8E
:102F50001196E0919608F091970830833C913323C5
:102F600039F7E0919008F091910820919B088081B9
:102F700090E0022E02C0959587950A94E2F780FFB3
:102F8000F6CFE0919608F09197088AE08083C60119
:102F90008E529E4F0E94008C7BC02DEE31E0C20EFF
:102FA000D31ED6011C92E3E1FEEFCE0EDF1EECE74E
:102FB000F1E044919F0119C0E0919008F0919108CF
:102FC00050919B08808190E0052E02C095958795D1
:102FD0000A94E2F780FFF6CFE0919608F091970807
:102FE00040832F5F3F4FF9014491442329F7E3EADF
:102FF000F2E044919F0119C0E0919008F09191088E
:1030000050919B08808190E0052E02C09595879590
:103010000A94E2F780FFF6CFE0919608F0919708C6
:1030200040832F5F3F4FF9014491442329F7D40196
:1030300016C0E0919008F091910820919B08808142
:1030400090E0022E02C0959587950A94E2F780FFE2
:10305000F6CF1196E0919608F091970830833C9155
:10306000332339F7E0919008F091910820919B0863
:10307000808190E0022E02C0959587950A94E2F730
:1030800080FFF6CFE0919608F09197088AE0808360
:10309000D60112961C921A8A1D8A198A188A80E60D
:1030A00096E09F878E87F2E5AF2EB12CAC0CBD1C4D
:1030B000E3E3F0E0CE0EDF1ED501CD92DC92EDEC25
:1030C000FFEFCE0EDF1ED4018C918F3209F0EEC0DF
:1030D000C4016FE270E00E94E90E7C010894E11CDB
:1030E000F11C3E010894611C711C2501E2E12E2EA9
:1030F000312C2C0E3D1ED5C0C7016FE270E00E943E
:10310000E90E5C01009709F4DFC0E816F90608F043
:10311000DBC08C010E191F09C301B701A8010E9471
:10312000090F060D171DF8011082D30116C0E0919A
:103130009008F091910820919B08808190E0022EE8
:1031400002C0959587950A94E2F780FFF6CF119615
:10315000E0919608F091970830833C91332339F73A
:10316000E0919008F091910820919B08808190E077
:10317000022E02C0959587950A94E2F780FFF6CF5C
:10318000E0919608F09197082AE02083D2016D9192
:103190007C916115710519F460E070E002C06C5F0C
:1031A0007F4FC101A30121E00E94EC92882309F026
:1031B0006DC0EFE8F2E044919F0119C0E0919008E2
:1031C000F091910850919B08808190E0052E02C0FB
:1031D000959587950A94E2F780FFF6CFE0919608DF
:1031E000F091970840832F5F3F4FF90144914423AA
:1031F00029F7DE01119616C0E0919008F091910830
:1032000020919B08808190E0022E02C095958795C1
:103210000A94E2F780FFF6CF1196E0919608F091BC
:10322000970830833C91332339F7EDE8F2E044917D
:103230009F0119C0E0919008F091910850919B086E
:10324000808190E0052E02C0959587950A94E2F75B
:1032500080FFF6CFE0919608F091970840832F5FAA
:103260003F4FF9014491442329F7E0919008F091F0
:10327000910820919B08808190E0022E02C09595D4
:1032800087950A94E2F780FFF6CF50C2EEE0F0E0B7
:10329000EC0FFD1FD201ED93FC9375010894E11C26
:1032A000F11CE114F10409F027CF0BC024E530E054
:1032B000C20ED31ED501CD92DC92ECEAFFEFCE0E0A
:1032C000DF1E082DF92C01C00E2DF601EE5AFF4F1E
:1032D0002DA5222309F458C1608171816115710502
:1032E00019F460E070E002C06C5F7F4FC6018E523F
:1032F0009E4F402F5F2D21E00E94EC92882309F41D
:10330000D4C0A60141585D4F83EE91E0C80ED91E8E
:10331000F60180819181A281B3812DE13EEFC20E41
:10332000D31EFA0180839183A283B383EFE7F2E097
:1033300044919F0119C0E0919008F091910850913B
:103340009B08808190E0052E02C0959587950A9490
:10335000E2F780FFF6CFE0919608F091970840835E
:103360002F5F3F4FF9014491442329F7802F9F2D70
:103370009C01D90116C0E0919008F091910820912C
:103380009B08808190E0022E02C0959587950A9453
:10339000E2F780FFF6CF1196E0919608F09197083A
:1033A00030833C91332339F7E7E7F2E044919F0102
:1033B00019C0E0919008F091910850919B0880818C
:1033C00090E0052E02C0959587950A94E2F780FF5C
:1033D000F6CFE0919608F091970840832F5F3F4F1A
:1033E000F9014491442329F72FE732E0C20ED31E9E
:1033F000D6014D915D916D917C91E1E8FDEFCE0E8E
:10340000DF1E88E898E02AE030E00E949031E091E9
:103410009008F091910820919B08808190E0022E05
:1034200002C0959587950A94E2F780FFF6CFE09168
:103430009608F09197088AE08083D6019F961D92A6
:103440001D921D921C92D297E9E6F2E044919F01F1
:1034500019C0E0919008F091910850919B088081EB
:1034600090E0052E02C0959587950A94E2F780FFBB
:10347000F6CFE0919608F091970840832F5F3F4F79
:10348000F9014491442329F7E0919008F0919108C3
:1034900020919B08808190E0022E02C0959587952F
:1034A0000A94E2F780FFF6CF41C1E5E5F2E04491EE
:1034B0009F0119C0E0919008F091910850919B08EC
:1034C000808190E0052E02C0959587950A94E2F7D9
:1034D00080FFF6CFE0919608F091970840832F5F28
:1034E0003F4FF9014491442329F7802F9F2D9C01E0
:1034F000D90116C0E0919008F091910820919B08A5
:10350000808190E0022E02C0959587950A94E2F79B
:1035100080FFF6CF1196E0919608F09197083083DE
:103520003C91332339F7E3E5F2E044919F0119C060
:10353000E0919008F091910850919B08808190E073
:10354000052E02C0959587950A94E2F780FFF6CF85
:10355000E0919608F091970840832F5F3F4FF90163
:103560004491442329F7E0919008F091910820912B
:103570009B08808190E0022E02C0959587950A9461
:10358000E2F780FFF6CFD2C06081718161157105CD
:1035900019F460E070E002C06C5F7F4FC6018E528C
:1035A0009E4F402F5F2D26E50E94EC92882309F064
:1035B0006FC0EFE3F2E044919F0119C0E0919008E1
:1035C000F091910850919B08808190E0052E02C0F7
:1035D000959587950A94E2F780FFF6CFE0919608DB
:1035E000F091970840832F5F3F4FF90144914423A6
:1035F00029F7802F9F2D9C01D90116C0E0919008DA
:10360000F091910820919B08808190E0022E02C0E9
:10361000959587950A94E2F780FFF6CF1196E09191
:103620009608F091970830833C91332339F7EDE306
:10363000F2E044919F0119C0E0919008F091910847
:1036400050919B08808190E0052E02C0959587954A
:103650000A94E2F780FFF6CFE0919608F091970880
:1036600040832F5F3F4FF9014491442329F7E091B4
:103670009008F091910820919B08808190E0022EA3
:1036800002C0959587950A94E2F780FFF6CF4EC069
:1036900081E0D6018C93EBE2F2E044919F0119C0E6
:1036A000E0919008F091910850919B08808190E002
:1036B000052E02C0959587950A94E2F780FFF6CF14
:1036C000E0919608F091970840832F5F3F4FF901F2
:1036D0004491442329F7D40116C0E0919008F09159
:1036E000910820919B08808190E0022E02C0959560
:1036F00087950A94E2F780FFF6CF1196E09196083D
:10370000F091970830833C91332339F7E09190088A
:10371000F091910820919B08808190E0022E02C0D8
:10372000959587950A94E2F780FFF6CFE091960889
:10373000F09197088AE08083CE010E960E94BB111B
:10374000AD960FB6F894DEBF0FBECDBFCF91DF911F
:103750001F910F91FF90EF90DF90CF90BF90AF90AF
:103760009F908F907F906F905F904F903F902F90A1
:103770000895EF92FF920F931F93CF93DF93EC0185
:103780000E94B0998E0103511E4FD8018C9192ED89
:10379000E92E91E0F92EEC0EFD1E882379F1C70188
:1037A0000E94008CF8016081615060838DE8689F01
:1037B000B00111246E507E4F6C0F7D1FCE0141E091
:1037C00021E0C4D9D801EC91F0E0EE0FFF1FEE0F1D
:1037D000FF1FEC0FFD1FE251FE4F408151816281BE
:1037E00073814FA758AB69AB7AABC7010E94E98AD6
:1037F0008B818823C9F181E08A8336C00E948D992C
:10380000C7010E94008C1A8282E791E00E941E513B
:1038100086E691E00E941E5181E691E00E941E51D1
:1038200080910713882301F1109207138091130CE4
:10383000C82FD0E0CC0FDD1FC95BD54E68817981E0
:10384000882777FD8095982F0E946DBB2091A10558
:103850003091A2054091A3055091A4050E94D9BCC6
:10386000181614F419821882DF91CF911F910F91CD
:10387000FF90EF900895FC0181E08183CF0140E04B
:1038800021E064C9EF92FF920F931F93CF93DF93D0
:103890007C01FC01138282AD882321F0C701C79609
:1038A0000E94008C870105551E4FC80163E04FEF51
:1038B0000E94AF89882309F051C0ECE7F1E0449100
:1038C0009F0119C0E0919008F091910850919B08D8
:1038D000808190E0052E02C0959587950A94E2F7C5
:1038E00080FFF6CFE0919608F091970840832F5F14
:1038F0003F4FF9014491442329F7E0E6F3E0449176
:103900009F0119C0E0919008F091910850919B0897
:10391000808190E0052E02C0959587950A94E2F784
:1039200080FFF6CFE0919608F091970840832F5FD3
:103930003F4FF9014491442329F7E0919008F09119
:10394000910820919B08808190E0022E02C09595FD
:1039500087950A94E2F780FFF6CF10C1E701C055C2
:10396000DE4FCE01B80141E00E947694882309F031
:1039700059C0CE01B80140E00E947694882309F036
:1039800051C0ECEAF1E044919F0119C0E091900828
:10399000F091910850919B08808190E0052E02C023
:1039A000959587950A94E2F780FFF6CFE091960807
:1039B000F091970840832F5F3F4FF90144914423D2
:1039C00029F7EDE4F3E044919F0119C0E0919008DC
:1039D000F091910850919B08808190E0052E02C0E3
:1039E000959587950A94E2F780FFF6CFE0919608C7
:1039F000F091970840832F5F3F4FF9014491442392
:103A000029F7E0919008F091910820919B0880811E
:103A100090E0022E02C0959587950A94E2F780FF08
:103A2000F6CFACC0C701C796BE010E94F28E8823B4
:103A300009F051C0ECEAF1E044919F0119C0E09116
:103A40009008F091910850919B08808190E0052E9C
:103A500002C0959587950A94E2F780FFF6CFE09132
:103A60009608F091970840832F5F3F4FF9014491EA
:103A7000442329F7EDE3F3E044919F0119C0E0915D
:103A80009008F091910850919B08808190E0052E5C
:103A900002C0959587950A94E2F780FFF6CFE091F2
:103AA0009608F091970840832F5F3F4FF9014491AA
:103AB000442329F7E0919008F091910820919B0808
:103AC000808190E0022E02C0959587950A94E2F7D6
:103AD00080FFF6CF53C081E0F7018383ECE7F1E08C
:103AE00044919F0119C0E0919008F0919108509184
:103AF0009B08808190E0052E02C0959587950A94D9
:103B0000E2F780FFF6CFE0919608F09197084083A6
:103B10002F5F3F4FF9014491442329F7E2E3F3E09B
:103B200044919F0119C0E0919008F0919108509143
:103B30009B08808190E0052E02C0959587950A9498
:103B4000E2F780FFF6CFE0919608F0919708408366
:103B50002F5F3F4FF9014491442329F7E0919008EA
:103B6000F091910820919B08808190E0022E02C084
:103B7000959587950A94E2F780FFF6CFE091960835
:103B8000F09197088AE08083D701A85ABF4FF701C8
:103B9000F7968BE101900D928150E1F7F70185A92D
:103BA00096A926E530E0E20EF31EF70191838083AB
:103BB0002AEA3FEFE20EF31EC701C396E2E5F0E00A
:103BC000EE0EFF1EF70191838083DF91CF911F914D
:103BD0000F91FF90EF9008952F923F924F925F9236
:103BE0006F927F929F92AF92BF92CF92DF92EF92AD
:103BF000FF920F931F93DF93CF93CDB7DEB7CC55D2
:103C0000D0400FB6F894DEBF0FBECDBF6C01662367
:103C100011F527E832E0C20ED31ED6018C91E9E7F8
:103C2000FDEFCE0EDF1E882309F4E3C023E832E067
:103C3000C20ED31ED601ED90FD900D911C91EDE7C3
:103C4000FDEFCE0EDF1E0E9496B3E616F7060807BC
:103C5000190708F4CEC027E832E0C20ED31ED60101
:103C60001C92E9E7FDEFCE0EDF1ED60113968C9174
:103C7000882339F4C60106DEF6018381882309F41E
:103C8000B8C000D000D0EDB7FEB731967E010894E1
:103C9000E11CF11CADB7BEB71296FC92EE921197E3
:103CA00083EA91E093838283D6019D968D919C91C6
:103CB0009E97958384830E94180F8701EDB7FEB706
:103CC00036960FB6F894FEBF0FBEEDBF57010AC07F
:103CD000D8018C91992787FD90950E9427BFF80104
:103CE00081938F01F50101900020E9F73197EA19DE
:103CF000FB09802F8E198E175CF357E3A52EB12C8C
:103D0000AC0CBD1CC50140E050E060E070E00E94DA
:103D1000E98A99244DE3E42EF12CEC0EFD1E2E01D0
:103D20000894411C511C3FE1632E712C6C0E7D1ECA
:103D30002CE9222E21E0322E42C0D8018C9190E055
:103D40000E9427BFF80181938F01D7010D900020B9
:103D5000E9F71197AE19BF09802F8E198A176CF3F6
:103D600027968FAD27978E3751F1C701B20145E0F5
:103D700050E00E94FB0E009711F500D000D0EDB787
:103D8000FEB73196ADB7BEB712967C926E92119780
:103D900033822282558244820E94180FEDB7FEB70B
:103DA00036960FB6F894FEBF0FBEEDBFC3010E945A
:103DB000B64E88E991E00E941E5199249394C50162
:103DC000B70140E050E00E94118E181614F48701EC
:103DD000BCCF992041F48FEF9FEFD6019E969C9324
:103DE0008E939D9706C0F60185A596A5019696A788
:103DF00085A7C45ADF4F0FB6F894DEBF0FBECDBF04
:103E0000CF91DF911F910F91FF90EF90DF90CF90B6
:103E1000BF90AF909F907F906F905F904F903F903A
:103E20002F9008952F923F924F925F926F927F92C0
:103E30008F929F92AF92BF92CF92DF92EF92FF92BA
:103E40000F931F93DF93CF93CDB7DEB7CF58D040FA
:103E50000FB6F894DEBF0FBECDBF8C013B016A01E7
:103E600084E090E0C80ED91EF8017196C757DF4F65
:103E7000F983E883C958D040C8010496CA57DF4F78
:103E800099838883C658D040C857DF4F1882C858D6
:103E9000D040A6E6EA2EF12CEC0EFD1EF7013B9673
:103EA000C557DF4FF983E883CB58D040F8E88F2E11
:103EB000F2E09F2E800E911EEAE8AE2EE2E0BE2ECA
:103EC000A00EB11E7EE0272E312C2C0E3D1E67E485
:103ED000462E512C4C0E5D1EC2010496C357DF4F77
:103EE00099838883CD58D040ECE7F1E09491C15795
:103EF000DF4F9883CF58D040CAC1F7018385482F40
:103F000050E0BA01687170706031710509F0CDC17F
:103F1000F401208131812130310509F4C6C12230FC
:103F2000310509F4C2C1F701DE011196908190328A
:103F300039F08E2F8E19883011F48EE28D939D9377
:103F40003196C557DF4F88819981CB58D040E8170B
:103F5000F90761F71C921E86F3018081882329F4FA
:103F6000C10160E072E00E94DE0EC101B3010E9457
:103F7000DE0EC101BE016F5F7F4F0E94DE0EC101E8
:103F800060E072E00E94DE0E1CA61FA61BA61AA609
:103F900080E696E099A788A7CE018C96B601AE017F
:103FA0004F5F5F4F21E00E94EC92882309F08DC0A3
:103FB000F40180819181892B09F087C0C157DF4FBF
:103FC0004881CF58D0402CE731E019C0E0919008EB
:103FD000F091910850919B08808190E0052E02C0DD
:103FE000959587950A94E2F780FFF6CFE0919608C1
:103FF000F091970840832F5F3F4FF901449144238C
:1040000029F7A2E0B2E016C0E0919008F091910883
:1040100020919B08808190E0022E02C095958795A3
:104020000A94E2F780FFF6CF1196E0919608F0919E
:10403000970830833C91332339F7E0919008F09151
:10404000910820919B08808190E0022E02C09595F6
:1040500087950A94E2F780FFF6CFE0919608F091F9
:1040600097088AE08083DE01119616C0E0919008DF
:10407000F091910820919B08808190E0022E02C06F
:10408000959587950A94E2F780FFF6CF1196E09117
:104090009608F091970830833C91332339F7E091EB
:1040A0009008F091910820919B08808190E0022E69
:1040B00002C0959587950A94E2F780FFF6CFE091CC
:1040C0009608F09197089AE09083C357DF4FA88134
:1040D000B981CD58D040FE01BC968BE101900D9284
:1040E0008150E1F78AA59BA5F2019383828380E644
:1040F00096E091838083C801B101A20193DEC201E1
:104100000E94BB11CE0188960E94BB11C0C0953E93
:1041100009F4BDC09E3209F4BAC09F3509F4B7C096
:10412000F8019189992331F09E3209F4B0C09F358E
:1041300009F4ADC043FDABC080E06031710509F406
:1041400081E0F80184A7882349F4F701808587344A
:1041500009F09DC081858E3709F499C0CA57DF4F99
:10416000A881B981C658D040F7018081803241F0E2
:104170008E2F8E19883011F48EE28D9380818D936D
:104180003196C557DF4F88819981CB58D040E817C9
:10419000F90759F71C92F40180819181009709F089
:1041A00052C0D30116C0E0919008F091910820917F
:1041B0009B08808190E0022E02C0959587950A9415
:1041C000E2F780FFF6CF1196E0919608F0919708FC
:1041D00030833C91332339F7CA57DF4FA881B98127
:1041E000C658D04016C0E0919008F09191082091F7
:1041F0009B08808190E0022E02C0959587950A94D5
:10420000E2F780FFF6CF1196E0919608F0919708BB
:1042100030833C91332339F7E0919008F091910875
:1042200020919B08808190E0022E02C09595879591
:104230000A94E2F780FFF6CFE0919608F091970894
:104240008AE0808324C08130910539F4F5018081B2
:1042500091810196918380831AC00297C1F4C85757
:10426000DF4FF881C858D0402F2F30E0F501808112
:10427000918128173907F1F0C857DF4FF881C858E6
:10428000D040FF5FC857DF4FF883C858D040C60101
:10429000B701C757DF4F48815981C958D0400E94A4
:1042A000118E18160CF429CE05C0F70190819923C0
:1042B00009F02DCFC157DF4F0FB6F894DEBF0FBE08
:1042C000CDBFCF91DF911F910F91FF90EF90DF90C5
:1042D000CF90BF90AF909F908F907F906F905F90A6
:1042E0004F903F902F900895EF92FF920F931F935E
:1042F000DF93CF93CDB7DEB76F970FB6F894DEBFDD
:104300000FBECDBF7C018C010E5A1F4F8C5A9F4FA0
:10431000F8019183808328E832E0E20EF31E21E069
:1043200030E0F701219331937F011182108226E75B
:104330003DEFE20EF31E049640E050E060E070E0D6
:104340000E94E98AF80120813181DE011596F90188
:1043500034968BE101900D928150E1F7F901828151
:1043600093819C838B8380E696E09A838983C7013F
:1043700065E172E08E010F5F1F4FA80153DDC80198
:104380000E94BB11F701E657FD4F808191816F9626
:104390000FB6F894DEBF0FBECDBFCF91DF911F9156
:1043A0000F91FF90EF900895EF92FF920F931F935C
:1043B000DF93CF93CDB7DEB76F970FB6F894DEBF1C
:1043C0000FBECDBF7C018C010E5A1F4F8C5A9F4FE0
:1043D000F8019183808328E832E0E20EF31E22E0A8
:1043E00030E0F7013183208328E73DEFE20EF31E32
:1043F000F701E657FD4F60831182049640E050E0DC
:1044000060E070E00E94E98AF80120813181DE01DC
:104410001596F90134968BE101900D928150E1F7E8
:10442000F901828193819C838B8380E696E09A8355
:104430008983C70165E172E08E010F5F1F4FA801FC
:10444000F1DCC8010E94BB116F960FB6F894DEBF75
:104450000FBECDBFCF91DF911F910F91FF90EF90D5
:104460000895EF92FF920F931F93DF93CF93CDB7F1
:10447000DEB76F970FB6F894DEBF0FBECDBF7C01DD
:1044800088E892E0E80EF91EF7011182108288E7B1
:104490009DEFE80EF91E8701095C1F4FC80140E03F
:1044A00050E060E070E00E94E98ADE011596F801B4
:1044B0008BE101900D928150E1F7F70185A996A952
:1044C0009C838B8380E696E09A838983C70165E1AC
:1044D00072E08E010F5F1F4FA801A4DCC8010E948B
:1044E000BB116F960FB6F894DEBF0FBECDBFCF9154
:1044F000DF911F910F91FF90EF9008950F931F93FD
:10450000CF93DF93DC01D7961C92D797DA961C9253
:10451000DA97D6961C921E92D59780E696E0D496AE
:104520009C938E93D397A85ABF4F1C9213961C92BC
:10453000AB55B040FD01EC5AFF4FAA5ABF4F119640
:104540001C921E92A655B04091838083ED01CD58F8
:10455000DF4FFE0120E030E0482F148217821382E3
:10456000128240839183215E3F4F7F9681E0263304
:10457000380799F7A455BE4F89E18C9313961C9286
:1045800058961C921B961C9213961C92A55DB140E6
:10459000FD01E253FE4FA053BE4F11961C921E9296
:1045A00040839183A155BF4F1D921D921D921C9275
:1045B0001397AF57B2409F961D921D921D921C9269
:1045C000D29712961C92129713961C9213971C92D4
:1045D00011961C9211978D010D571D4FF8011082F5
:1045E000118212821382A755BE4F11961C921E9201
:1045F000AC5BBF4F1C92FE01C90111920197E9F714
:10460000A656BF4F81E08C93A758B2409E961C924D
:104610001E929D970E9496B368577C4E8F4F9F4F76
:10462000F8016083718382839383DF91CF911F911F
:104630000F910895DF93CF93CDB7DEB766970FB68E
:10464000F894DEBF0FBECDBF809116029091170285
:10465000A0911802B09119028F87988BA98BBA8B01
:10466000FE013F9624E630E08081F999FECF1FBA23
:1046700032BD21BD80BD0FB6F894FA9AF99A0FBEEB
:104680002F5F3F4F2836310511F03196EDCFEBEA21
:10469000F2E18081F999FECF1FBA32BD21BD80BD04
:1046A0000FB6F894FA9AF99A0FBE2F5F3F4F28374A
:1046B000310511F03196EDCFEBE9F2E18081F99906
:1046C000FECF1FBA32BD21BD80BD0FB6F894FA9A55
:1046D000F99A0FBE2F5F3F4F2838310511F0319600
:1046E000EDCFEBEBF2E18081F999FECF1FBA32BD3D
:1046F00021BD80BD0FB6F894FA9AF99A0FBE2F5FCC
:104700003F4F2839310511F03196EDCFEFECF2E152
:104710008081F999FECF1FBA32BD21BD80BD0FB691
:10472000F894FA9AF99A0FBE2F5F3F4F2C39310552
:1047300011F03196EDCFE3EDF2E18081F999FECFF2
:104740001FBA32BD21BD80BD0FB6F894FA9AF99A0E
:104750000FBE2F5F3F4F203A310511F03196EDCF5C
:10476000EBECF2E18081F999FECF1FBA32BD21BD99
:1047700080BD0FB6F894FA9AF99A0FBE2F5F3F4F9B
:10478000243A310511F03196EDCFE3EEF2E180816C
:10479000F999FECF1FBA32BD21BD80BD0FB6F89486
:1047A000FA9AF99A0FBE2F5F3F4F283A310511F060
:1047B0003196EDCFE7E9F2E18081F999FECF1FBA9A
:1047C00032BD21BD80BD0FB6F894FA9AF99A0FBE9A
:1047D0002F5F3F4F2C3A310511F03196EDCFE7EDC9
:1047E000F2E18081F999FECF1FBA32BD21BD80BDB3
:1047F0000FB6F894FA9AF99A0FBE2F5F3F4F203BFD
:10480000310511F03196EDCFEBEDF2E18081F999B0
:10481000FECF1FBA32BD21BD80BD0FB6F894FA9A03
:10482000F99A0FBE2F5F3F4F243B310511F03196AF
:10483000EDCFEFEDF2E18081F999FECF1FBA32BDE5
:1048400021BD80BD0FB6F894FA9AF99A0FBE2F5F7A
:104850003F4F283B310511F03196EDCFEBEFFBE0F8
:104860008081F999FECF1FBA32BD21BD80BD0FB640
:10487000F894FA9AF99A0FBE2F5F3F4F243C310506
:1048800011F03196EDCF82ED90E09A8389838CE32D
:1048900090E09C838B831E821D8286EE90E0988739
:1048A0008F838EE690E09A8789871C861B86FE019F
:1048B00031968081F999FECF1FBA32BD21BD80BDEE
:1048C0000FB6F894FA9AF99A0FBE2F5F3F4F263C25
:1048D000310571F7FE0133968081F999FECF1FBA39
:1048E00032BD21BD80BD0FB6F894FA9AF99A0FBE79
:1048F0002F5F3F4F283C310511F03196EDCFFE017F
:1049000035968081F999FECF1FBA32BD21BD80BD99
:104910000FB6F894FA9AF99A0FBE2F5F3F4F2A3CD0
:10492000310511F03196EDCFFE0137968081F9996E
:10493000FECF1FBA32BD21BD80BD0FB6F894FA9AE2
:10494000F99A0FBE2F5F3F4F2C3C310511F0319685
:10495000EDCFFE0139968081F999FECF1FBA32BDA5
:1049600021BD80BD0FB6F894FA9AF99A0FBE2F5F59
:104970003F4F2E3C310511F03196EDCFFE013B96B5
:104980008081F999FECF1FBA32BD21BD80BD0FB61F
:10499000F894FA9AF99A0FBE2F5F3F4F203D3105E8
:1049A00011F03196EDCFE2EBF5E08081F999FECF81
:1049B0001FBA32BD21BD80BD0FB6F894FA9AF99A9C
:1049C0000FBE2F5F3F4F243D310511F03196EDCFE3
:1049D000E6EBF5E08081F999FECF1FBA32BD21BD2B
:1049E00080BD0FB6F894FA9AF99A0FBE2F5F3F4F29
:1049F000283D310511F03196EDCFEAEBF5E08081ED
:104A0000F999FECF1FBA32BD21BD80BD0FB6F89413
:104A1000FA9AF99A0FBE2F5F3F4F2C3D310511F0E6
:104A20003196EDCF80E290E09E878D87FE013D9626
:104A30008081F999FECF1FBA32BD21BD80BD0FB66E
:104A4000F894FA9AF99A0FBE2D3D310521F031966E
:104A50002DED30E0EDCF20911909F999FECF1FBA65
:104A60008EED90E092BD81BD20BD0FB6F894FA9A0C
:104A7000F99A0FBE80911A0290911B02A0911C021C
:104A8000B0911D028B8B9C8BAD8BBE8BFE01739600
:104A900084E690E02081F999FECF1FBA92BD81BDD6
:104AA00020BD0FB6F894FA9AF99A0FBE8736910591
:104AB00019F001963196EECFEDE6F3E044919F01B7
:104AC00019C0E0919008F091910850919B08808165
:104AD00090E0052E02C0959587950A94E2F780FF35
:104AE000F6CFE0919608F091970840832F5F3F4FF3
:104AF000F9014491442329F7E7E7F5E044919F0148
:104B000019C0E0919008F091910850919B08808124
:104B100090E0052E02C0959587950A94E2F780FFF4
:104B2000F6CFE0919608F091970840832F5F3F4FB2
:104B3000F9014491442329F7E0919008F0919108FC
:104B400020919B08808190E0022E02C09595879568
:104B50000A94E2F780FFF6CFE0919608F09197086B
:104B60008AE0808366960FB6F894DEBF0FBECDBF95
:104B7000CF91DF910895DF93CF93CDB7DEB7E09764
:104B80000FB6F894DEBF0FBECDBFDE011196E8EE82
:104B9000F5E080E101900D928150E1F7DE01519640
:104BA000E8EDF5E080E101900D928150E1F7DE0142
:104BB0009196E8ECF5E080E101900D928150E1F7EB
:104BC00089819A81AB81BC818093AB129093AC12A6
:104BD000A093AD12B093AE1289899A89AB89BC8932
:104BE00080939B1290939C12A0939D12B0939E125F
:104BF00089A19AA1ABA1BCA18093BB129093BC12D6
:104C0000A093BD12B093BE128D819E81AF81B885F5
:104C10008093AF129093B012A093B112B093B212DE
:104C20008D899E89AF89B88D80939F129093A01231
:104C3000A093A112B093A2128DA19EA1AFA1B8A57D
:104C40008093BF129093C012A093C112B093C2126E
:104C500089859A85AB85BC858093B3129093B412F5
:104C6000A093B512B093B612898D9A8DAB8DBC8D81
:104C70008093A3129093A412A093A512B093A612AE
:104C800089A59AA5ABA5BCA58093C3129093C41225
:104C9000A093C512B093C6128D859E85AF85B88945
:104CA0008093B7129093B812A093B912B093BA122E
:104CB0008D8D9E8DAF8DB8A18093A7129093A81271
:104CC000A093A912B093AA128DA59EA5AFA5B8A9CD
:104CD0008093C7129093C812A093C912B093CA12BE
:104CE0000E94427680E090E8ABE3B5E48093CF1277
:104CF0009093D012A093D112B093D2128093D3127A
:104D00009093D412A093D512B093D61220E030E045
:104D100040E050E02093CB123093CC124093CD1260
:104D20005093CE1280E29EE4A0E0B0E08093971210
:104D300090939812A0939912B0939A122093E31231
:104D40003093E4124093E5125093E61280E090E035
:104D5000A0EAB1E48093D7129093D812A093D9120D
:104D6000B093DA128DEC9CECACECBEE38093DB12DA
:104D70009093DC12A093DD12B093DE1280E090E0FD
:104D8000A0EAB0E48093DF129093E012A093E112C6
:104D9000B093E2122093030C3093040C4093050C63
:104DA0005093060C2093FF0B3093000C4093010CA2
:104DB0005093020C2093FB0B3093FC0B4093FD0BA4
:104DC0005093FE0B8AE999E9A1EBB1E48093B20517
:104DD0009093B305A093B405B093B50561E77DE367
:104DE0008AE89FE30E94BBA26093B6057093B70563
:104DF0008093B8059093B90560E070E084EE92E48A
:104E00000E94C7A26093BA057093BB058093BC054E
:104E10009093BD050E94D2A180E090E0A0E8BFE39E
:104E20008093BE059093BF05A093C005B093C105C4
:104E3000EDE6F3E044919F0119C0E0919008F091F4
:104E4000910850919B08808190E0052E02C09595B5
:104E500087950A94E2F780FFF6CFE0919608F091EB
:104E6000970840832F5F3F4FF9014491442329F76E
:104E7000E3E7F3E044919F0119C0E0919008F091BD
:104E8000910850919B08808190E0052E02C0959575
:104E900087950A94E2F780FFF6CFE0919608F091AB
:104EA000970840832F5F3F4FF9014491442329F72E
:104EB000E0919008F091910820919B08808190E00A
:104EC000022E02C0959587950A94E2F780FFF6CFEF
:104ED000E0919608F09197088AE08083E0960FB6FB
:104EE000F894DEBF0FBECDBFCF91DF910895CF9371
:104EF000DF93CDE6D3E0FE0144919E0119C0E0911D
:104F00009008F091910850919B08808190E0052EC7
:104F100002C0959587950A94E2F780FFF6CFE0915D
:104F20009608F091970840832F5F3F4FF901449115
:104F3000442329F7E7E6F5E044919F0119C0E09189
:104F40009008F091910850919B08808190E0052E87
:104F500002C0959587950A94E2F780FFF6CFE0911D
:104F60009608F091970840832F5F3F4FF9014491D5
:104F7000442329F7E0919008F091910820919B0833
:104F8000808190E0022E02C0959587950A94E2F701
:104F900080FFF6CFE0919608F09197088AE0808331
:104FA000FE0144912DE633E019C0E0919008F091A4
:104FB000910850919B08808190E0052E02C0959544
:104FC00087950A94E2F780FFF6CFE0919608F0917A
:104FD000970840832F5F3F4FF9014491442329F7FD
:104FE0004091AB125091AC126091AD127091AE1223
:104FF0008FE595E00E946D3E4091AF125091B01246
:105000006091B1127091B2128CE595E00E946D3EF4
:105010004091B3125091B4126091B5127091B612D2
:1050200089E595E00E946D3E4091B7125091B8120B
:105030006091B9127091BA1286E595E00E946D3EBA
:10504000AEE1B2E016C0E0919008F0919108209195
:105050009B08808190E0022E02C0959587950A9466
:10506000E2F780FFF6CF1196E0919608F09197084D
:1050700030833C91332339F7E0919008F091910807
:1050800020919B08808190E0022E02C09595879523
:105090000A94E2F780FFF6CFE0919608F091970826
:1050A0008AE08083FE0144912DE633E019C0E0914F
:1050B0009008F091910850919B08808190E0052E16
:1050C00002C0959587950A94E2F780FFF6CFE091AC
:1050D0009608F091970840832F5F3F4FF901449164
:1050E000442329F7ECE3F5E044919F0119C0E091D6
:1050F0009008F091910850919B08808190E0052ED6
:1051000002C0959587950A94E2F780FFF6CFE0916B
:105110009608F091970840832F5F3F4FF901449123
:10512000442329F7E0919008F091910820919B0881
:10513000808190E0022E02C0959587950A94E2F74F
:1051400080FFF6CFE0919608F09197088AE080837F
:10515000FE0144912DE633E019C0E0919008F091F2
:10516000910850919B08808190E0052E02C0959592
:1051700087950A94E2F780FFF6CFE0919608F091C8
:10518000970840832F5F3F4FF9014491442329F74B
:1051900040919B1250919C1260919D1270919E12B1
:1051A00083E395E00E946D3E40919F125091A012C2
:1051B0006091A1127091A21280E395E00E946D3E71
:1051C0004091A3125091A4126091A5127091A61261
:1051D0008DE295E00E946D3E4091A7125091A81279
:1051E0006091A9127091AA128AE295E00E946D3E28
:1051F000AEE1B2E016C0E0919008F09191082091E4
:105200009B08808190E0022E02C0959587950A94B4
:10521000E2F780FFF6CF1196E0919608F09197089B
:1052200030833C91332339F7E0919008F091910855
:1052300020919B08808190E0022E02C09595879571
:105240000A94E2F780FFF6CFE0919608F091970874
:105250008AE08083FE0144912DE633E019C0E0919D
:105260009008F091910850919B08808190E0052E64
:1052700002C0959587950A94E2F780FFF6CFE091FA
:105280009608F091970840832F5F3F4FF9014491B2
:10529000442329F7ECE0F5E044919F0119C0E09127
:1052A0009008F091910850919B08808190E0052E24
:1052B00002C0959587950A94E2F780FFF6CFE091BA
:1052C0009608F091970840832F5F3F4FF901449172
:1052D000442329F7E0919008F091910820919B08D0
:1052E000808190E0022E02C0959587950A94E2F79E
:1052F00080FFF6CFE0919608F09197088AE08083CE
:10530000FE0144912DE633E019C0E0919008F09140
:10531000910850919B08808190E0052E02C09595E0
:1053200087950A94E2F780FFF6CFE0919608F09116
:10533000970840832F5F3F4FF9014491442329F799
:105340004091BB125091BC126091BD127091BE127F
:1053500083E095E00E9447414091BF125091C012F6
:105360006091C1127091C21280E095E00E944741A5
:105370004091C3125091C4126091C5127091C6122F
:105380008DEF94E00E9447414091C7125091C8129E
:105390006091C9127091CA128AEF94E00E9447414D
:1053A000AEE1B2E016C0E0919008F0919108209132
:1053B0009B08808190E0022E02C0959587950A9403
:1053C000E2F780FFF6CF1196E0919608F0919708EA
:1053D00030833C91332339F7E0919008F0919108A4
:1053E00020919B08808190E0022E02C095958795C0
:1053F0000A94E2F780FFF6CFE0919608F0919708C3
:105400008AE08083FE0144912DE633E019C0E091EB
:105410009008F091910850919B08808190E0052EB2
:1054200002C0959587950A94E2F780FFF6CFE09148
:105430009608F091970840832F5F3F4FF901449100
:10544000442329F7E5ECF4E044919F0119C0E09171
:105450009008F091910850919B08808190E0052E72
:1054600002C0959587950A94E2F780FFF6CFE09108
:105470009608F091970840832F5F3F4FF9014491C0
:10548000442329F7E0919008F091910820919B081E
:10549000808190E0022E02C0959587950A94E2F7EC
:1054A00080FFF6CFE0919608F09197088AE080831C
:1054B000FE0144912DE633E019C0E0919008F0918F
:1054C000910850919B08808190E0052E02C095952F
:1054D00087950A94E2F780FFF6CFE0919608F09165
:1054E000970840832F5F3F4FF9014491442329F7E8
:1054F0004091CF125091D0126091D1127091D2127E
:105500008CEB94E00E946D3E4091D3125091D412E6
:105510006091D5127091D61289EB94E00E946D3E95
:10552000AEE1B2E016C0E0919008F09191082091B0
:105530009B08808190E0022E02C0959587950A9481
:10554000E2F780FFF6CF1196E0919608F091970868
:1055500030833C91332339F7E0919008F091910822
:1055600020919B08808190E0022E02C0959587953E
:105570000A94E2F780FFF6CFE0919608F091970841
:105580008AE08083FE0144912DE633E019C0E0916A
:105590009008F091910850919B08808190E0052E31
:1055A00002C0959587950A94E2F780FFF6CFE091C7
:1055B0009608F091970840832F5F3F4FF90144917F
:1055C000442329F7E6E0F4E044919F0119C0E091FB
:1055D0009008F091910850919B08808190E0052EF1
:1055E00002C0959587950A94E2F780FFF6CFE09187
:1055F0009608F091970840832F5F3F4FF90144913F
:10560000442329F7E0919008F091910820919B089C
:10561000808190E0022E02C0959587950A94E2F76A
:1056200080FFF6CFE0919608F09197088AE080839A
:10563000FE0144912DE633E019C0E0919008F0910D
:10564000910850919B08808190E0052E02C09595AD
:1056500087950A94E2F780FFF6CFE0919608F091E3
:10566000970840832F5F3F4FF9014491442329F766
:105670004091CB125091CC126091CD127091CE120C
:105680008DEF93E00E946D3E4091E3125091E41241
:105690006091E5127091E6128AEF93E00E946D3EF0
:1056A00040919712509198126091991270919A12AC
:1056B00087EF93E00E9447414091D7125091D81252
:1056C0006091D9127091DA1284EF93E00E946D3EDE
:1056D0004091DB125091DC126091DD127091DE126C
:1056E00081EF93E00E946D3E4091DF125091E012F5
:1056F0006091E1127091E2128EEE93E00E946D3E95
:10570000AEE1B2E016C0E0919008F09191082091CE
:105710009B08808190E0022E02C0959587950A949F
:10572000E2F780FFF6CF1196E0919608F091970886
:1057300030833C91332339F7E0919008F091910840
:1057400020919B08808190E0022E02C0959587955C
:105750000A94E2F780FFF6CFE0919608F09197085F
:105760008AE08083FE0144912DE633E019C0E09188
:105770009008F091910850919B08808190E0052E4F
:1057800002C0959587950A94E2F780FFF6CFE091E5
:105790009608F091970840832F5F3F4FF90144919D
:1057A000442329F7ECEDF3E044919F0119C0E09107
:1057B0009008F091910850919B08808190E0052E0F
:1057C00002C0959587950A94E2F780FFF6CFE091A5
:1057D0009608F091970840832F5F3F4FF90144915D
:1057E000442329F7E0919008F091910820919B08BB
:1057F000808190E0022E02C0959587950A94E2F789
:1058000080FFF6CFE0919608F09197088AE08083B8
:10581000FE0144912DE633E019C0E0919008F0912B
:10582000910850919B08808190E0052E02C09595CB
:1058300087950A94E2F780FFF6CFE0919608F09101
:10584000970840832F5F3F4FF9014491442329F784
:105850004091FB0B5091FC0B6091FD0B7091FE0B86
:1058600083ED93E00E946D3E4091FF0B5091000C40
:105870006091010C7091020C80ED93E00E946D3EEE
:105880004091030C5091040C6091050C7091060C32
:105890008DEC93E00E946D3EAEE1B2E016C0E09167
:1058A0009008F091910820919B08808190E0022E51
:1058B00002C0959587950A94E2F780FFF6CF11967E
:1058C000E0919608F091970830833C91332339F7A3
:1058D000E0919008F091910820919B08808190E0E0
:1058E000022E02C0959587950A94E2F780FFF6CFC5
:1058F000E0919608F09197088AE08083FE01449138
:105900002DE633E019C0E0919008F0919108509194
:105910009B08808190E0052E02C0959587950A949A
:10592000E2F780FFF6CFE0919608F0919708408368
:105930002F5F3F4FF9014491442329F7EFEBF3E048
:1059400044919F0119C0E0919008F0919108509105
:105950009B08808190E0052E02C0959587950A945A
:10596000E2F780FFF6CFE0919608F0919708408328
:105970002F5F3F4FF9014491442329F7E0919008AC
:10598000F091910820919B08808190E0022E02C046
:10599000959587950A94E2F780FFF6CFE0919608F7
:1059A000F09197088AE08083FE0144912DE633E070
:1059B00019C0E0919008F091910850919B08808166
:1059C00090E0052E02C0959587950A94E2F780FF36
:1059D000F6CFE0919608F091970840832F5F3F4FF4
:1059E000F9014491442329F74091B2055091B30540
:1059F0006091B4057091B50585EB93E00E946D3E12
:105A00006091B6057091B7058091B8059091B90580
:105A10000E94C1A2AB01BC0182EB93E00E946D3EEB
:105A20006091BA057091BB058091BC059091BD0550
:105A30000E94CDA2AB01BC018FEA93E00E946D3EB3
:105A4000AEE1B2E016C0E0919008F091910820918B
:105A50009B08808190E0022E02C0959587950A945C
:105A6000E2F780FFF6CF1196E0919608F091970843
:105A700030833C91332339F7E0919008F0919108FD
:105A800020919B08808190E0022E02C09595879519
:105A90000A94E2F780FFF6CFE0919608F09197081C
:105AA0008AE08083DF91CF9108950F931F93DF9356
:105AB000CF93CDB7DEB766970FB6F894DEBF0FBEB3
:105AC000CDBF80911A0290911B02A0911C02B0914F
:105AD0001D028B8B9C8BAD8BBE8BFE013F9604E62B
